{
  "_format": "hh-sol-artifact-1",
  "contractName": "FundToken",
  "sourceName": "contracts/FundToken.sol",
  "abi": [
    {
      "inputs": [],
      "stateMutability": "nonpayable",
      "type": "constructor"
    },
    {
      "inputs": [
        {
          "internalType": "address",
          "name": "owner",
          "type": "address"
        }
      ],
      "name": "OwnableInvalidOwner",
      "type": "error"
    },
    {
      "inputs": [
        {
          "internalType": "address",
          "name": "account",
          "type": "address"
        }
      ],
      "name": "OwnableUnauthorizedAccount",
      "type": "error"
    },
    {
      "anonymous": false,
      "inputs": [
        {
          "indexed": true,
          "internalType": "address",
          "name": "investor",
          "type": "address"
        },
        {
          "indexed": false,
          "internalType": "uint256",
          "name": "usdAmount",
          "type": "uint256"
        },
        {
          "indexed": false,
          "internalType": "uint256",
          "name": "sharesIssued",
          "type": "uint256"
        },
        {
          "indexed": false,
          "internalType": "uint256",
          "name": "sharePrice",
          "type": "uint256"
        }
      ],
      "name": "Investment",
      "type": "event"
    },
    {
      "anonymous": false,
      "inputs": [
        {
          "indexed": false,
          "internalType": "uint256",
          "name": "totalAssetValue",
          "type": "uint256"
        },
        {
          "indexed": false,
          "internalType": "uint256",
          "name": "sharesSupply",
          "type": "uint256"
        },
        {
          "indexed": false,
          "internalType": "uint256",
          "name": "sharePrice",
          "type": "uint256"
        }
      ],
      "name": "MetricsUpdated",
      "type": "event"
    },
    {
      "anonymous": false,
      "inputs": [
        {
          "indexed": true,
          "internalType": "address",
          "name": "previousOwner",
          "type": "address"
        },
        {
          "indexed": true,
          "internalType": "address",
          "name": "newOwner",
          "type": "address"
        }
      ],
      "name": "OwnershipTransferred",
      "type": "event"
    },
    {
      "anonymous": false,
      "inputs": [
        {
          "indexed": true,
          "internalType": "address",
          "name": "investor",
          "type": "address"
        },
        {
          "indexed": false,
          "internalType": "uint256",
          "name": "shares",
          "type": "uint256"
        },
        {
          "indexed": false,
          "internalType": "uint256",
          "name": "usdAmount",
          "type": "uint256"
        },
        {
          "indexed": false,
          "internalType": "uint256",
          "name": "sharePrice",
          "type": "uint256"
        }
      ],
      "name": "Redemption",
      "type": "event"
    },
    {
      "inputs": [
        {
          "internalType": "address",
          "name": "investor",
          "type": "address"
        }
      ],
      "name": "balanceOf",
      "outputs": [
        {
          "internalType": "uint256",
          "name": "",
          "type": "uint256"
        }
      ],
      "stateMutability": "view",
      "type": "function"
    },
    {
      "inputs": [],
      "name": "getFundMetrics",
      "outputs": [
        {
          "components": [
            {
              "internalType": "uint256",
              "name": "totalAssetValue",
              "type": "uint256"
            },
            {
              "internalType": "uint256",
              "name": "sharesSupply",
              "type": "uint256"
            },
            {
              "internalType": "uint256",
              "name": "lastUpdateTime",
              "type": "uint256"
            }
          ],
          "internalType": "struct IFundToken.FundMetrics",
          "name": "",
          "type": "tuple"
        }
      ],
      "stateMutability": "view",
      "type": "function"
    },
    {
      "inputs": [],
      "name": "getSharePrice",
      "outputs": [
        {
          "internalType": "uint256",
          "name": "",
          "type": "uint256"
        }
      ],
      "stateMutability": "view",
      "type": "function"
    },
    {
      "inputs": [
        {
          "internalType": "address",
          "name": "investor",
          "type": "address"
        },
        {
          "internalType": "uint256",
          "name": "usdAmount",
          "type": "uint256"
        }
      ],
      "name": "invest",
      "outputs": [
        {
          "internalType": "uint256",
          "name": "sharesIssued",
          "type": "uint256"
        }
      ],
      "stateMutability": "nonpayable",
      "type": "function"
    },
    {
      "inputs": [],
      "name": "owner",
      "outputs": [
        {
          "internalType": "address",
          "name": "",
          "type": "address"
        }
      ],
      "stateMutability": "view",
      "type": "function"
    },
    {
      "inputs": [
        {
          "internalType": "address",
          "name": "investor",
          "type": "address"
        },
        {
          "internalType": "uint256",
          "name": "shares",
          "type": "uint256"
        }
      ],
      "name": "redeem",
      "outputs": [
        {
          "internalType": "uint256",
          "name": "usdAmount",
          "type": "uint256"
        }
      ],
      "stateMutability": "nonpayable",
      "type": "function"
    },
    {
      "inputs": [],
      "name": "renounceOwnership",
      "outputs": [],
      "stateMutability": "nonpayable",
      "type": "function"
    },
    {
      "inputs": [
        {
          "internalType": "uint256",
          "name": "price",
          "type": "uint256"
        }
      ],
      "name": "setSharePrice",
      "outputs": [],
      "stateMutability": "nonpayable",
      "type": "function"
    },
    {
      "inputs": [
        {
          "internalType": "address",
          "name": "newOwner",
          "type": "address"
        }
      ],
      "name": "transferOwnership",
      "outputs": [],
      "stateMutability": "nonpayable",
      "type": "function"
    }
  ],
  "bytecode": "0x6080604052620f4240600161001491906101c8565b60055534801561002357600080fd5b5033600073ffffffffffffffffffffffffffffffffffffffff168173ffffffffffffffffffffffffffffffffffffffff16036100975760006040517f1e4fbdf700000000000000000000000000000000000000000000000000000000815260040161008e919061024b565b60405180910390fd5b6100a6816100cb60201b60201c565b5060006002600001819055506000600260010181905550426002800181905550610266565b60008060009054906101000a900473ffffffffffffffffffffffffffffffffffffffff169050816000806101000a81548173ffffffffffffffffffffffffffffffffffffffff021916908373ffffffffffffffffffffffffffffffffffffffff1602179055508173ffffffffffffffffffffffffffffffffffffffff168173ffffffffffffffffffffffffffffffffffffffff167f8be0079c531659141344cd1fd0a4f28419497f9722a3daafe3b4186f6b6457e060405160405180910390a35050565b6000819050919050565b7f4e487b7100000000000000000000000000000000000000000000000000000000600052601160045260246000fd5b60006101d38261018f565b91506101de8361018f565b92508282026101ec8161018f565b9150828204841483151761020357610202610199565b5b5092915050565b600073ffffffffffffffffffffffffffffffffffffffff82169050919050565b60006102358261020a565b9050919050565b6102458161022a565b82525050565b6000602082019050610260600083018461023c565b92915050565b610d88806102756000396000f3fe608060405234801561001057600080fd5b50600436106100935760003560e01c8063715018a611610066578063715018a6146101325780638da5cb5b1461013c578063b39f8e7c1461015a578063b9b8c24614610178578063f2fde38b146101a857610093565b806316b60249146100985780631e9a6950146100b45780635b1dac60146100e457806370a0823114610102575b600080fd5b6100b260048036038101906100ad9190610889565b6101c4565b005b6100ce60048036038101906100c99190610914565b6101d6565b6040516100db9190610963565b60405180910390f35b6100ec6103f2565b6040516100f99190610963565b60405180910390f35b61011c6004803603810190610117919061097e565b6103fc565b6040516101299190610963565b60405180910390f35b61013a610445565b005b610144610459565b60405161015191906109ba565b60405180910390f35b610162610482565b60405161016f9190610a26565b60405180910390f35b610192600480360381019061018d9190610914565b6104ba565b60405161019f9190610963565b60405180910390f35b6101c260048036038101906101bd919061097e565b610654565b005b6101cc6106da565b8060058190555050565b600080821161021a576040517f08c379a000000000000000000000000000000000000000000000000000000000815260040161021190610ac4565b60405180910390fd5b81600160008573ffffffffffffffffffffffffffffffffffffffff1673ffffffffffffffffffffffffffffffffffffffff16815260200190815260200160002054101561029c576040517f08c379a000000000000000000000000000000000000000000000000000000000815260040161029390610b30565b60405180910390fd5b620f4240600554836102ae9190610b7f565b6102b89190610bf0565b905081600160008573ffffffffffffffffffffffffffffffffffffffff1673ffffffffffffffffffffffffffffffffffffffff16815260200190815260200160002060008282546103099190610c21565b9250508190555080600260000160008282546103259190610c21565b9250508190555081600260010160008282546103419190610c21565b925050819055504260028001819055508273ffffffffffffffffffffffffffffffffffffffff167fdde84b7d9f1e63dc5da295c5bff0bd33e2f49172e0cecbdf8028dcb61a24c83d838360055460405161039d93929190610c55565b60405180910390a27f30b47c3a685e507da227a870550a387d376e03da27ad5b6a1d8c7517eb2d9b2f6002600001546002600101546005546040516103e493929190610c55565b60405180910390a192915050565b6000600554905090565b6000600160008373ffffffffffffffffffffffffffffffffffffffff1673ffffffffffffffffffffffffffffffffffffffff168152602001908152602001600020549050919050565b61044d6106da565b6104576000610761565b565b60008060009054906101000a900473ffffffffffffffffffffffffffffffffffffffff16905090565b61048a61082d565b60026040518060600160405290816000820154815260200160018201548152602001600282015481525050905090565b60008082116104fe576040517f08c379a00000000000000000000000000000000000000000000000000000000081526004016104f590610cfe565b60405180910390fd5b600554620f4240836105109190610b7f565b61051a9190610bf0565b905080600160008573ffffffffffffffffffffffffffffffffffffffff1673ffffffffffffffffffffffffffffffffffffffff168152602001908152602001600020600082825461056b9190610d1e565b9250508190555081600260000160008282546105879190610d1e565b9250508190555080600260010160008282546105a39190610d1e565b925050819055504260028001819055508273ffffffffffffffffffffffffffffffffffffffff167f3bdff14eed6ddd6ca85e178ed7df644a6a676c0796374ce875e380bc74a28e7883836005546040516105ff93929190610c55565b60405180910390a27f30b47c3a685e507da227a870550a387d376e03da27ad5b6a1d8c7517eb2d9b2f60026000015460026001015460055460405161064693929190610c55565b60405180910390a192915050565b61065c6106da565b600073ffffffffffffffffffffffffffffffffffffffff168173ffffffffffffffffffffffffffffffffffffffff16036106ce5760006040517f1e4fbdf70000000000000000000000000000000000000000000000000000000081526004016106c591906109ba565b60405180910390fd5b6106d781610761565b50565b6106e2610825565b73ffffffffffffffffffffffffffffffffffffffff16610700610459565b73ffffffffffffffffffffffffffffffffffffffff161461075f57610723610825565b6040517f118cdaa700000000000000000000000000000000000000000000000000000000815260040161075691906109ba565b60405180910390fd5b565b60008060009054906101000a900473ffffffffffffffffffffffffffffffffffffffff169050816000806101000a81548173ffffffffffffffffffffffffffffffffffffffff021916908373ffffffffffffffffffffffffffffffffffffffff1602179055508173ffffffffffffffffffffffffffffffffffffffff168173ffffffffffffffffffffffffffffffffffffffff167f8be0079c531659141344cd1fd0a4f28419497f9722a3daafe3b4186f6b6457e060405160405180910390a35050565b600033905090565b60405180606001604052806000815260200160008152602001600081525090565b600080fd5b6000819050919050565b61086681610853565b811461087157600080fd5b50565b6000813590506108838161085d565b92915050565b60006020828403121561089f5761089e61084e565b5b60006108ad84828501610874565b91505092915050565b600073ffffffffffffffffffffffffffffffffffffffff82169050919050565b60006108e1826108b6565b9050919050565b6108f1816108d6565b81146108fc57600080fd5b50565b60008135905061090e816108e8565b92915050565b6000806040838503121561092b5761092a61084e565b5b6000610939858286016108ff565b925050602061094a85828601610874565b9150509250929050565b61095d81610853565b82525050565b60006020820190506109786000830184610954565b92915050565b6000602082840312156109945761099361084e565b5b60006109a2848285016108ff565b91505092915050565b6109b4816108d6565b82525050565b60006020820190506109cf60008301846109ab565b92915050565b6109de81610853565b82525050565b6060820160008201516109fa60008501826109d5565b506020820151610a0d60208501826109d5565b506040820151610a2060408501826109d5565b50505050565b6000606082019050610a3b60008301846109e4565b92915050565b600082825260208201905092915050565b7f526564656d7074696f6e20736861726573206d7573742062652067726561746560008201527f72207468616e207a65726f000000000000000000000000000000000000000000602082015250565b6000610aae602b83610a41565b9150610ab982610a52565b604082019050919050565b60006020820190508181036000830152610add81610aa1565b9050919050565b7f496e73756666696369656e742073686172657320746f2072656465656d000000600082015250565b6000610b1a601d83610a41565b9150610b2582610ae4565b602082019050919050565b60006020820190508181036000830152610b4981610b0d565b9050919050565b7f4e487b7100000000000000000000000000000000000000000000000000000000600052601160045260246000fd5b6000610b8a82610853565b9150610b9583610853565b9250828202610ba381610853565b91508282048414831517610bba57610bb9610b50565b5b5092915050565b7f4e487b7100000000000000000000000000000000000000000000000000000000600052601260045260246000fd5b6000610bfb82610853565b9150610c0683610853565b925082610c1657610c15610bc1565b5b828204905092915050565b6000610c2c82610853565b9150610c3783610853565b9250828203905081811115610c4f57610c4e610b50565b5b92915050565b6000606082019050610c6a6000830186610954565b610c776020830185610954565b610c846040830184610954565b949350505050565b7f496e766573746d656e7420616d6f756e74206d7573742062652067726561746560008201527f72207468616e207a65726f000000000000000000000000000000000000000000602082015250565b6000610ce8602b83610a41565b9150610cf382610c8c565b604082019050919050565b60006020820190508181036000830152610d1781610cdb565b9050919050565b6000610d2982610853565b9150610d3483610853565b9250828201905080821115610d4c57610d4b610b50565b5b9291505056fea2646970667358221220b85ab3c8f0d12b0f6cc40482ccaa9bfc3ef8881f253784b25e3db732d19fc70c64736f6c634300081b0033",
  "linkReferences": {},
  "deployedLinkReferences": {}
}